{
  "contractName": "ERC721Connector",
  "abi": [
    {
      "inputs": [
        {
          "internalType": "string",
          "name": "name",
          "type": "string"
        },
        {
          "internalType": "string",
          "name": "symbol",
          "type": "string"
        }
      ],
      "stateMutability": "nonpayable",
      "type": "constructor"
    },
    {
      "anonymous": false,
      "inputs": [
        {
          "indexed": true,
          "internalType": "address",
          "name": "_owner",
          "type": "address"
        },
        {
          "indexed": true,
          "internalType": "address",
          "name": "_approved",
          "type": "address"
        },
        {
          "indexed": true,
          "internalType": "uint256",
          "name": "_tokenId",
          "type": "uint256"
        }
      ],
      "name": "Approval",
      "type": "event"
    },
    {
      "anonymous": false,
      "inputs": [
        {
          "indexed": true,
          "internalType": "address",
          "name": "_owner",
          "type": "address"
        },
        {
          "indexed": true,
          "internalType": "address",
          "name": "_operator",
          "type": "address"
        },
        {
          "indexed": false,
          "internalType": "bool",
          "name": "_approved",
          "type": "bool"
        }
      ],
      "name": "ApprovalForAll",
      "type": "event"
    },
    {
      "anonymous": false,
      "inputs": [
        {
          "indexed": true,
          "internalType": "address",
          "name": "_from",
          "type": "address"
        },
        {
          "indexed": true,
          "internalType": "address",
          "name": "_to",
          "type": "address"
        },
        {
          "indexed": true,
          "internalType": "uint256",
          "name": "_tokenId",
          "type": "uint256"
        }
      ],
      "name": "Transfer",
      "type": "event"
    },
    {
      "inputs": [
        {
          "internalType": "address",
          "name": "_approved",
          "type": "address"
        },
        {
          "internalType": "uint256",
          "name": "_tokenId",
          "type": "uint256"
        }
      ],
      "name": "approve",
      "outputs": [],
      "stateMutability": "payable",
      "type": "function"
    },
    {
      "inputs": [
        {
          "internalType": "address",
          "name": "_owner",
          "type": "address"
        }
      ],
      "name": "balanceOf",
      "outputs": [
        {
          "internalType": "uint256",
          "name": "",
          "type": "uint256"
        }
      ],
      "stateMutability": "view",
      "type": "function"
    },
    {
      "inputs": [
        {
          "internalType": "uint256",
          "name": "_tokenId",
          "type": "uint256"
        }
      ],
      "name": "getApproved",
      "outputs": [
        {
          "internalType": "address",
          "name": "",
          "type": "address"
        }
      ],
      "stateMutability": "view",
      "type": "function"
    },
    {
      "inputs": [
        {
          "internalType": "address",
          "name": "_owner",
          "type": "address"
        },
        {
          "internalType": "address",
          "name": "_operator",
          "type": "address"
        }
      ],
      "name": "isApprovedForAll",
      "outputs": [
        {
          "internalType": "bool",
          "name": "",
          "type": "bool"
        }
      ],
      "stateMutability": "view",
      "type": "function"
    },
    {
      "inputs": [],
      "name": "name",
      "outputs": [
        {
          "internalType": "string",
          "name": "",
          "type": "string"
        }
      ],
      "stateMutability": "view",
      "type": "function"
    },
    {
      "inputs": [
        {
          "internalType": "uint256",
          "name": "_tokenId",
          "type": "uint256"
        }
      ],
      "name": "ownerOf",
      "outputs": [
        {
          "internalType": "address",
          "name": "",
          "type": "address"
        }
      ],
      "stateMutability": "view",
      "type": "function"
    },
    {
      "inputs": [
        {
          "internalType": "address",
          "name": "_operator",
          "type": "address"
        },
        {
          "internalType": "bool",
          "name": "_approved",
          "type": "bool"
        }
      ],
      "name": "setApprovalForAll",
      "outputs": [],
      "stateMutability": "nonpayable",
      "type": "function"
    },
    {
      "inputs": [
        {
          "internalType": "bytes4",
          "name": "interfaceID",
          "type": "bytes4"
        }
      ],
      "name": "supportsInterface",
      "outputs": [
        {
          "internalType": "bool",
          "name": "",
          "type": "bool"
        }
      ],
      "stateMutability": "view",
      "type": "function"
    },
    {
      "inputs": [],
      "name": "symbol",
      "outputs": [
        {
          "internalType": "string",
          "name": "",
          "type": "string"
        }
      ],
      "stateMutability": "view",
      "type": "function"
    },
    {
      "inputs": [
        {
          "internalType": "uint256",
          "name": "_index",
          "type": "uint256"
        }
      ],
      "name": "tokenByIndex",
      "outputs": [
        {
          "internalType": "uint256",
          "name": "",
          "type": "uint256"
        }
      ],
      "stateMutability": "view",
      "type": "function"
    },
    {
      "inputs": [
        {
          "internalType": "address",
          "name": "_owner",
          "type": "address"
        },
        {
          "internalType": "uint256",
          "name": "_index",
          "type": "uint256"
        }
      ],
      "name": "tokenOfOwnerByIndex",
      "outputs": [
        {
          "internalType": "uint256",
          "name": "",
          "type": "uint256"
        }
      ],
      "stateMutability": "view",
      "type": "function"
    },
    {
      "inputs": [
        {
          "internalType": "uint256",
          "name": "_tokenId",
          "type": "uint256"
        }
      ],
      "name": "tokenURI",
      "outputs": [
        {
          "internalType": "string",
          "name": "",
          "type": "string"
        }
      ],
      "stateMutability": "view",
      "type": "function"
    },
    {
      "inputs": [],
      "name": "totalSupply",
      "outputs": [
        {
          "internalType": "uint256",
          "name": "",
          "type": "uint256"
        }
      ],
      "stateMutability": "view",
      "type": "function"
    },
    {
      "inputs": [
        {
          "internalType": "address",
          "name": "_from",
          "type": "address"
        },
        {
          "internalType": "address",
          "name": "_to",
          "type": "address"
        },
        {
          "internalType": "uint256",
          "name": "_tokenId",
          "type": "uint256"
        }
      ],
      "name": "transferFrom",
      "outputs": [],
      "stateMutability": "payable",
      "type": "function"
    }
  ],
  "bytecode": "0x60806040523480156200001157600080fd5b506040516200231f3803806200231f8339818101604052810190620000379190620004f3565b81816200006a7f01ffc9a7a5cef8baa21ed3c5c0d7e23accb804b619e9333b597f47a0d84076e26200027f60201b60201c565b81600190816200007b9190620007c3565b5080600290816200008d9190620007c3565b50620001037ffe1fe95acebadd5c664ee41aecf527d79ff82e329abb64857d6e0d40371737b17f13b182f4c0e5b2efbac0efe6cf6d756c8b89f4b79c5707a043ed9ea740574ee97f7feaf19471f34a12a7eaf32d5f3090aa2260ea8624dc8a138e74e0bf0f62307618186200027f60201b60201c565b5050620002027fe0c9b09697cad3aa3f2bcb7fdd781becaefa478990b24e83d3bfdb65623d77537f5af227006b8981efabb10af200ab71f08976cbce54b4c59ae5c97811d19a398c7f90dba0bef8387ab29f95a1abead857c8ccc338f1038f6fa159fa78fd18aff9f77f8c51fd5fcf1f456ec4eb0f32f68d83471264fe082fac12bcbfd2fa4be9eed6c77f22c82707ba960a14c7592ffb6b8cfaa073fed0048a84cc7fa41f6b5bd8e7f2e47f3a6eb71757dfc6e784c1459d26270140c2c147d95ca985c80026fc5301c3eca17f8a7e378434598edc36d108689a030cbc9d7d465de4f74c71bae1028eed6a881b1818181818186200027f60201b60201c565b620002777f8230223f691b981717299fae9549350a0d894555723531f02108b1f522c1a7977f6da5e1284143cdd2d15038a59bde3be031250f00291d64494c12d967b3a4e0c37fc53637662700e6c65104059db8bba34439e0c32483ab7c34e3ccae52c739549518186200027f60201b60201c565b50506200092d565b63ffffffff60e01b817bffffffffffffffffffffffffffffffffffffffffffffffffffffffff191603620002ea576040517f08c379a0000000000000000000000000000000000000000000000000000000008152600401620002e1906200090b565b60405180910390fd5b6001600080837bffffffffffffffffffffffffffffffffffffffffffffffffffffffff19167bffffffffffffffffffffffffffffffffffffffffffffffffffffffff1916815260200190815260200160002060006101000a81548160ff02191690831515021790555050565b6000604051905090565b600080fd5b600080fd5b600080fd5b600080fd5b6000601f19601f8301169050919050565b7f4e487b7100000000000000000000000000000000000000000000000000000000600052604160045260246000fd5b620003bf8262000374565b810181811067ffffffffffffffff82111715620003e157620003e062000385565b5b80604052505050565b6000620003f662000356565b9050620004048282620003b4565b919050565b600067ffffffffffffffff82111562000427576200042662000385565b5b620004328262000374565b9050602081019050919050565b60005b838110156200045f57808201518184015260208101905062000442565b838111156200046f576000848401525b50505050565b60006200048c620004868462000409565b620003ea565b905082815260208101848484011115620004ab57620004aa6200036f565b5b620004b88482856200043f565b509392505050565b600082601f830112620004d857620004d76200036a565b5b8151620004ea84826020860162000475565b91505092915050565b600080604083850312156200050d576200050c62000360565b5b600083015167ffffffffffffffff8111156200052e576200052d62000365565b5b6200053c85828601620004c0565b925050602083015167ffffffffffffffff81111562000560576200055f62000365565b5b6200056e85828601620004c0565b9150509250929050565b600081519050919050565b7f4e487b7100000000000000000000000000000000000000000000000000000000600052602260045260246000fd5b60006002820490506001821680620005cb57607f821691505b602082108103620005e157620005e062000583565b5b50919050565b60008190508160005260206000209050919050565b60006020601f8301049050919050565b600082821b905092915050565b6000600883026200064b7fffffffffffffffffffffffffffffffffffffffffffffffffffffffffffffffff826200060c565b6200065786836200060c565b95508019841693508086168417925050509392505050565b6000819050919050565b6000819050919050565b6000620006a46200069e62000698846200066f565b62000679565b6200066f565b9050919050565b6000819050919050565b620006c08362000683565b620006d8620006cf82620006ab565b84845462000619565b825550505050565b600090565b620006ef620006e0565b620006fc818484620006b5565b505050565b5b81811015620007245762000718600082620006e5565b60018101905062000702565b5050565b601f82111562000773576200073d81620005e7565b6200074884620005fc565b8101602085101562000758578190505b620007706200076785620005fc565b83018262000701565b50505b505050565b600082821c905092915050565b6000620007986000198460080262000778565b1980831691505092915050565b6000620007b3838362000785565b9150826002028217905092915050565b620007ce8262000578565b67ffffffffffffffff811115620007ea57620007e962000385565b5b620007f68254620005b2565b6200080382828562000728565b600060209050601f8311600181146200083b576000841562000826578287015190505b620008328582620007a5565b865550620008a2565b601f1984166200084b86620005e7565b60005b8281101562000875578489015182556001820191506020850194506020810190506200084e565b8683101562000895578489015162000891601f89168262000785565b8355505b6001600288020188555050505b505050505050565b600082825260208201905092915050565b7f4552433136353a20696e76616c696420696e7465726661636549440000000000600082015250565b6000620008f3601b83620008aa565b91506200090082620008bb565b602082019050919050565b600060208201905081810360008301526200092681620008e4565b9050919050565b6119e2806200093d6000396000f3fe6080604052600436106100dd5760003560e01c80634f6ccce71161007f57806395d89b411161005957806395d89b41146102de578063a22cb46514610309578063c87b56dd14610332578063e985e9c51461036f576100dd565b80634f6ccce7146102275780636352211e1461026457806370a08231146102a1576100dd565b8063095ea7b3116100bb578063095ea7b31461018757806318160ddd146101a357806323b872dd146101ce5780632f745c59146101ea576100dd565b806301ffc9a7146100e257806306fdde031461011f578063081812fc1461014a575b600080fd5b3480156100ee57600080fd5b50610109600480360381019061010491906111a5565b6103ac565b60405161011691906111ed565b60405180910390f35b34801561012b57600080fd5b50610134610413565b60405161014191906112a1565b60405180910390f35b34801561015657600080fd5b50610171600480360381019061016c91906112f9565b6104a5565b60405161017e9190611367565b60405180910390f35b6101a1600480360381019061019c91906113ae565b610586565b005b3480156101af57600080fd5b506101b8610720565b6040516101c591906113fd565b60405180910390f35b6101e860048036038101906101e39190611418565b61072d565b005b3480156101f657600080fd5b50610211600480360381019061020c91906113ae565b610a8b565b60405161021e91906113fd565b60405180910390f35b34801561023357600080fd5b5061024e600480360381019061024991906112f9565b610b3b565b60405161025b91906113fd565b60405180910390f35b34801561027057600080fd5b5061028b600480360381019061028691906112f9565b610bac565b6040516102989190611367565b60405180910390f35b3480156102ad57600080fd5b506102c860048036038101906102c3919061146b565b610c8d565b6040516102d591906113fd565b60405180910390f35b3480156102ea57600080fd5b506102f3610d47565b60405161030091906112a1565b60405180910390f35b34801561031557600080fd5b50610330600480360381019061032b91906114c4565b610dd9565b005b34801561033e57600080fd5b50610359600480360381019061035491906112f9565b610f4a565b60405161036691906112a1565b60405180910390f35b34801561037b57600080fd5b5061039660048036038101906103919190611504565b610fef565b6040516103a391906111ed565b60405180910390f35b6000806000837bffffffffffffffffffffffffffffffffffffffffffffffffffffffff19167bffffffffffffffffffffffffffffffffffffffffffffffffffffffff1916815260200190815260200160002060009054906101000a900460ff169050919050565b60606001805461042290611573565b80601f016020809104026020016040519081016040528092919081815260200182805461044e90611573565b801561049b5780601f106104705761010080835404028352916020019161049b565b820191906000526020600020905b81548152906001019060200180831161047e57829003601f168201915b5050505050905090565b6000816005600082815260200190815260200160002060009054906101000a900473ffffffffffffffffffffffffffffffffffffffff1673ffffffffffffffffffffffffffffffffffffffff16600073ffffffffffffffffffffffffffffffffffffffff160361054a576040517f08c379a0000000000000000000000000000000000000000000000000000000008152600401610541906115f0565b60405180910390fd5b6006600084815260200190815260200160002060009054906101000a900473ffffffffffffffffffffffffffffffffffffffff16915050919050565b61058f81611083565b6105ce576040517f08c379a00000000000000000000000000000000000000000000000000000000081526004016105c590611682565b60405180910390fd5b6005600082815260200190815260200160002060009054906101000a900473ffffffffffffffffffffffffffffffffffffffff1673ffffffffffffffffffffffffffffffffffffffff168273ffffffffffffffffffffffffffffffffffffffff160361066f576040517f08c379a000000000000000000000000000000000000000000000000000000000815260040161066690611714565b60405180910390fd5b816006600083815260200190815260200160002060006101000a81548173ffffffffffffffffffffffffffffffffffffffff021916908373ffffffffffffffffffffffffffffffffffffffff160217905550808273ffffffffffffffffffffffffffffffffffffffff163373ffffffffffffffffffffffffffffffffffffffff167f8c5be1e5ebec7d5bd14f71427d1e84f3dd0314c0f7b2291e5b200ac8c7c3b92560405160405180910390a45050565b6000600880549050905090565b806005600082815260200190815260200160002060009054906101000a900473ffffffffffffffffffffffffffffffffffffffff1673ffffffffffffffffffffffffffffffffffffffff16600073ffffffffffffffffffffffffffffffffffffffff16036107d0576040517f08c379a00000000000000000000000000000000000000000000000000000000081526004016107c7906115f0565b60405180910390fd5b828073ffffffffffffffffffffffffffffffffffffffff16600073ffffffffffffffffffffffffffffffffffffffff1603610840576040517f08c379a0000000000000000000000000000000000000000000000000000000008152600401610837906117a6565b60405180910390fd5b61084983611083565b610888576040517f08c379a000000000000000000000000000000000000000000000000000000000815260040161087f90611682565b60405180910390fd5b6005600084815260200190815260200160002060009054906101000a900473ffffffffffffffffffffffffffffffffffffffff1673ffffffffffffffffffffffffffffffffffffffff168573ffffffffffffffffffffffffffffffffffffffff1614610929576040517f08c379a000000000000000000000000000000000000000000000000000000000815260040161092090611812565b60405180910390fd5b836005600085815260200190815260200160002060006101000a81548173ffffffffffffffffffffffffffffffffffffffff021916908373ffffffffffffffffffffffffffffffffffffffff1602179055506001600460008773ffffffffffffffffffffffffffffffffffffffff1673ffffffffffffffffffffffffffffffffffffffff16815260200190815260200160002060008282546109cb9190611861565b925050819055506001600460008673ffffffffffffffffffffffffffffffffffffffff1673ffffffffffffffffffffffffffffffffffffffff1681526020019081526020016000206000828254610a229190611895565b92505081905550828473ffffffffffffffffffffffffffffffffffffffff168673ffffffffffffffffffffffffffffffffffffffff167fddf252ad1be2c89b69c2b068fc378daa952ba7f163c4a11628f55a4df523b3ef60405160405180910390a45050505050565b6000610a9683610c8d565b8210610ad7576040517f08c379a0000000000000000000000000000000000000000000000000000000008152600401610ace9061195d565b60405180910390fd5b600a60008473ffffffffffffffffffffffffffffffffffffffff1673ffffffffffffffffffffffffffffffffffffffff1681526020019081526020016000208281548110610b2857610b2761197d565b5b9060005260206000200154905092915050565b6000610b45610720565b8210610b86576040517f08c379a0000000000000000000000000000000000000000000000000000000008152600401610b7d9061195d565b60405180910390fd5b60088281548110610b9a57610b9961197d565b5b90600052602060002001549050919050565b6000816005600082815260200190815260200160002060009054906101000a900473ffffffffffffffffffffffffffffffffffffffff1673ffffffffffffffffffffffffffffffffffffffff16600073ffffffffffffffffffffffffffffffffffffffff1603610c51576040517f08c379a0000000000000000000000000000000000000000000000000000000008152600401610c48906115f0565b60405180910390fd5b6005600084815260200190815260200160002060009054906101000a900473ffffffffffffffffffffffffffffffffffffffff16915050919050565b6000818073ffffffffffffffffffffffffffffffffffffffff16600073ffffffffffffffffffffffffffffffffffffffff1603610cff576040517f08c379a0000000000000000000000000000000000000000000000000000000008152600401610cf6906117a6565b60405180910390fd5b600460008473ffffffffffffffffffffffffffffffffffffffff1673ffffffffffffffffffffffffffffffffffffffff16815260200190815260200160002054915050919050565b606060028054610d5690611573565b80601f0160208091040260200160405190810160405280929190818152602001828054610d8290611573565b8015610dcf5780601f10610da457610100808354040283529160200191610dcf565b820191906000526020600020905b815481529060010190602001808311610db257829003601f168201915b5050505050905090565b60003390508273ffffffffffffffffffffffffffffffffffffffff168173ffffffffffffffffffffffffffffffffffffffff1603610e4c576040517f08c379a0000000000000000000000000000000000000000000000000000000008152600401610e4390611714565b60405180910390fd5b81600760008373ffffffffffffffffffffffffffffffffffffffff1673ffffffffffffffffffffffffffffffffffffffff16815260200190815260200160002060008573ffffffffffffffffffffffffffffffffffffffff1673ffffffffffffffffffffffffffffffffffffffff16815260200190815260200160002060006101000a81548160ff0219169083151502179055508273ffffffffffffffffffffffffffffffffffffffff168173ffffffffffffffffffffffffffffffffffffffff167f17307eab39ab6107e8899845ad3d59bd9653f200f220920489ca2b5937696c3184604051610f3d91906111ed565b60405180910390a3505050565b6060600360008381526020019081526020016000208054610f6a90611573565b80601f0160208091040260200160405190810160405280929190818152602001828054610f9690611573565b8015610fe35780601f10610fb857610100808354040283529160200191610fe3565b820191906000526020600020905b815481529060010190602001808311610fc657829003601f168201915b50505050509050919050565b6000600760008473ffffffffffffffffffffffffffffffffffffffff1673ffffffffffffffffffffffffffffffffffffffff16815260200190815260200160002060008373ffffffffffffffffffffffffffffffffffffffff1673ffffffffffffffffffffffffffffffffffffffff16815260200190815260200160002060009054906101000a900460ff16905092915050565b6000806005600084815260200190815260200160002060009054906101000a900473ffffffffffffffffffffffffffffffffffffffff16905060003390508073ffffffffffffffffffffffffffffffffffffffff168273ffffffffffffffffffffffffffffffffffffffff16148061110157506111008282610fef565b5b8061113f5750611110846104a5565b73ffffffffffffffffffffffffffffffffffffffff168173ffffffffffffffffffffffffffffffffffffffff16145b92505050919050565b600080fd5b60007fffffffff0000000000000000000000000000000000000000000000000000000082169050919050565b6111828161114d565b811461118d57600080fd5b50565b60008135905061119f81611179565b92915050565b6000602082840312156111bb576111ba611148565b5b60006111c984828501611190565b91505092915050565b60008115159050919050565b6111e7816111d2565b82525050565b600060208201905061120260008301846111de565b92915050565b600081519050919050565b600082825260208201905092915050565b60005b83811015611242578082015181840152602081019050611227565b83811115611251576000848401525b50505050565b6000601f19601f8301169050919050565b600061127382611208565b61127d8185611213565b935061128d818560208601611224565b61129681611257565b840191505092915050565b600060208201905081810360008301526112bb8184611268565b905092915050565b6000819050919050565b6112d6816112c3565b81146112e157600080fd5b50565b6000813590506112f3816112cd565b92915050565b60006020828403121561130f5761130e611148565b5b600061131d848285016112e4565b91505092915050565b600073ffffffffffffffffffffffffffffffffffffffff82169050919050565b600061135182611326565b9050919050565b61136181611346565b82525050565b600060208201905061137c6000830184611358565b92915050565b61138b81611346565b811461139657600080fd5b50565b6000813590506113a881611382565b92915050565b600080604083850312156113c5576113c4611148565b5b60006113d385828601611399565b92505060206113e4858286016112e4565b9150509250929050565b6113f7816112c3565b82525050565b600060208201905061141260008301846113ee565b92915050565b60008060006060848603121561143157611430611148565b5b600061143f86828701611399565b935050602061145086828701611399565b9250506040611461868287016112e4565b9150509250925092565b60006020828403121561148157611480611148565b5b600061148f84828501611399565b91505092915050565b6114a1816111d2565b81146114ac57600080fd5b50565b6000813590506114be81611498565b92915050565b600080604083850312156114db576114da611148565b5b60006114e985828601611399565b92505060206114fa858286016114af565b9150509250929050565b6000806040838503121561151b5761151a611148565b5b600061152985828601611399565b925050602061153a85828601611399565b9150509250929050565b7f4e487b7100000000000000000000000000000000000000000000000000000000600052602260045260246000fd5b6000600282049050600182168061158b57607f821691505b60208210810361159e5761159d611544565b5b50919050565b7f4552433732313a20746f6b656e20696420646f6573206e6f7420657869737473600082015250565b60006115da602083611213565b91506115e5826115a4565b602082019050919050565b60006020820190508181036000830152611609816115cd565b9050919050565b7f4552433732313a206f6e6c79206f776e6572206f7220617070726f766564206160008201527f646472657373202f206f70657261746f722063616e2063616c6c000000000000602082015250565b600061166c603a83611213565b915061167782611610565b604082019050919050565b6000602082019050818103600083015261169b8161165f565b9050919050565b7f4552433732313a206e6f206e65656420746f20617070726f766520666f72206f60008201527f776e657200000000000000000000000000000000000000000000000000000000602082015250565b60006116fe602483611213565b9150611709826116a2565b604082019050919050565b6000602082019050818103600083015261172d816116f1565b9050919050565b7f4552433732313a205a45524f2041444452455353206973206e6f7420616c6c6f60008201527f7765640000000000000000000000000000000000000000000000000000000000602082015250565b6000611790602383611213565b915061179b82611734565b604082019050919050565b600060208201905081810360008301526117bf81611783565b9050919050565b7f4552433732313a20696e76616c6964206f776e65722061646472657373000000600082015250565b60006117fc601d83611213565b9150611807826117c6565b602082019050919050565b6000602082019050818103600083015261182b816117ef565b9050919050565b7f4e487b7100000000000000000000000000000000000000000000000000000000600052601160045260246000fd5b600061186c826112c3565b9150611877836112c3565b92508282101561188a57611889611832565b5b828203905092915050565b60006118a0826112c3565b91506118ab836112c3565b9250827fffffffffffffffffffffffffffffffffffffffffffffffffffffffffffffffff038211156118e0576118df611832565b5b828201905092915050565b7f455243373231456e756d657261626c653a20696e646578206f7574206f66206260008201527f6f756e6400000000000000000000000000000000000000000000000000000000602082015250565b6000611947602483611213565b9150611952826118eb565b604082019050919050565b600060208201905081810360008301526119768161193a565b9050919050565b7f4e487b7100000000000000000000000000000000000000000000000000000000600052603260045260246000fdfea26469706673582212207d5eb7520d4f2eb09a39942b420c499ad58a3c63c614b945f07dc74ac928b4a064736f6c634300080f0033",
  "immutableReferences": {},
  "source": "// SPDX-License-Identifier: MIT\npragma solidity 0.8.15;\n\nimport './ERC721Metadata.sol';\nimport './ERC721Enumerable.sol';\n\ncontract ERC721Connector is ERC721Metadata, ERC721Enumerable {\n  \n  constructor(string memory name, string memory symbol) ERC721Metadata(name, symbol) {\n\t\n  }\n}\n",
  "sourcePath": "/Users/saadshafiq/ethereum/solidity-learnings/nft-tradables/src/nft-contracts/contracts/ERC721Connector.sol",
  "compiler": {
    "name": "solc",
    "version": "0.8.15+commit.e14f2714.Emscripten.clang"
  },
  "schemaVersion": "3.4.8",
  "updatedAt": "2022-07-13T17:02:28.323Z",
  "devdoc": {
    "kind": "dev",
    "methods": {
      "approve(address,uint256)": {
        "details": "The zero address indicates there is no approved address.  Throws unless `msg.sender` is the current NFT owner, or an authorized  operator of the current owner.",
        "params": {
          "_approved": "The new approved NFT controller",
          "_tokenId": "The NFT to approve"
        }
      },
      "balanceOf(address)": {
        "details": "NFTs assigned to the zero address are considered invalid, and this  function throws for queries about the zero address.",
        "params": {
          "_owner": "An address for whom to query the balance"
        },
        "returns": {
          "_0": "The number of NFTs owned by `_owner`, possibly zero"
        }
      },
      "getApproved(uint256)": {
        "details": "Throws if `_tokenId` is not a valid NFT.",
        "params": {
          "_tokenId": "The NFT to find the approved address for"
        },
        "returns": {
          "_0": "The approved address for this NFT, or the zero address if there is none"
        }
      },
      "isApprovedForAll(address,address)": {
        "params": {
          "_operator": "The address that acts on behalf of the owner",
          "_owner": "The address that owns the NFTs"
        },
        "returns": {
          "_0": "True if `_operator` is an approved operator for `_owner`, false otherwise"
        }
      },
      "ownerOf(uint256)": {
        "details": "NFTs assigned to zero address are considered invalid, and queries  about them do throw.",
        "params": {
          "_tokenId": "The identifier for an NFT"
        },
        "returns": {
          "_0": "The address of the owner of the NFT"
        }
      },
      "setApprovalForAll(address,bool)": {
        "details": "Emits the ApprovalForAll event. The contract MUST allow  multiple operators per owner.",
        "params": {
          "_approved": "True if the operator is approved, false to revoke approval",
          "_operator": "Address to add to the set of authorized operators"
        }
      },
      "supportsInterface(bytes4)": {
        "details": "Interface identification is specified in ERC-165. This function  uses less than 30,000 gas.",
        "params": {
          "interfaceID": "The interface identifier, as specified in ERC-165"
        },
        "returns": {
          "_0": "`true` if the contract implements `interfaceID` and  `interfaceID` is not 0xffffffff, `false` otherwise"
        }
      },
      "tokenByIndex(uint256)": {
        "details": "Throws if `_index` >= `totalSupply()`.",
        "params": {
          "_index": "A counter less than `totalSupply()`"
        },
        "returns": {
          "_0": "The token identifier for the `_index`th NFT,  (sort order not specified)"
        }
      },
      "tokenOfOwnerByIndex(address,uint256)": {
        "details": "Throws if `_index` >= `balanceOf(_owner)` or if  `_owner` is the zero address, representing invalid NFTs.",
        "params": {
          "_index": "A counter less than `balanceOf(_owner)`",
          "_owner": "An address where we are interested in NFTs owned by them"
        },
        "returns": {
          "_0": "The token identifier for the `_index`th NFT assigned to `_owner`,   (sort order not specified)"
        }
      },
      "tokenURI(uint256)": {
        "details": "Throws if `_tokenId` is not a valid NFT. URIs are defined in RFC  3986. The URI may point to a JSON file that conforms to the \"ERC721  Metadata JSON Schema\"."
      },
      "totalSupply()": {
        "returns": {
          "_0": "A count of valid NFTs tracked by this contract, where each one of  them has an assigned and queryable owner not equal to the zero address"
        }
      },
      "transferFrom(address,address,uint256)": {
        "details": "Throws unless `msg.sender` is the current owner, an authorized  operator, or the approved address for this NFT. Throws if `_from` is  not the current owner. Throws if `_to` is the zero address. Throws if  `_tokenId` is not a valid NFT.",
        "params": {
          "_from": "The current owner of the NFT",
          "_to": "The new owner",
          "_tokenId": "The NFT to transfer"
        }
      }
    },
    "version": 1
  },
  "userdoc": {
    "kind": "user",
    "methods": {
      "approve(address,uint256)": {
        "notice": "Change or reaffirm the approved address for an NFT"
      },
      "balanceOf(address)": {
        "notice": "Count all NFTs assigned to an owner"
      },
      "getApproved(uint256)": {
        "notice": "Get the approved address for a single NFT"
      },
      "isApprovedForAll(address,address)": {
        "notice": "Query if an address is an authorized operator for another address"
      },
      "name()": {
        "notice": "A descriptive name for a collection of NFTs in this contract"
      },
      "ownerOf(uint256)": {
        "notice": "Find the owner of an NFT"
      },
      "setApprovalForAll(address,bool)": {
        "notice": "Enable or disable approval for a third party (\"operator\") to manage  all of `msg.sender`'s assets"
      },
      "supportsInterface(bytes4)": {
        "notice": "Query if a contract implements an interface"
      },
      "symbol()": {
        "notice": "An abbreviated name for NFTs in this contract"
      },
      "tokenByIndex(uint256)": {
        "notice": "Enumerate valid NFTs"
      },
      "tokenOfOwnerByIndex(address,uint256)": {
        "notice": "Enumerate NFTs assigned to an owner"
      },
      "tokenURI(uint256)": {
        "notice": "A distinct Uniform Resource Identifier (URI) for a given asset."
      },
      "totalSupply()": {
        "notice": "Count NFTs tracked by this contract"
      },
      "transferFrom(address,address,uint256)": {
        "notice": "Transfer ownership of an NFT -- THE CALLER IS RESPONSIBLE  TO CONFIRM THAT `_to` IS CAPABLE OF RECEIVING NFTS OR ELSE  THEY MAY BE PERMANENTLY LOST"
      }
    },
    "version": 1
  }
}