{
  "contractName": "ERC721Metadata",
  "abi": [
    {
      "inputs": [
        {
          "internalType": "string",
          "name": "__name",
          "type": "string"
        },
        {
          "internalType": "string",
          "name": "__symbol",
          "type": "string"
        }
      ],
      "stateMutability": "nonpayable",
      "type": "constructor"
    },
    {
      "inputs": [
        {
          "internalType": "bytes4",
          "name": "interfaceID",
          "type": "bytes4"
        }
      ],
      "name": "supportsInterface",
      "outputs": [
        {
          "internalType": "bool",
          "name": "",
          "type": "bool"
        }
      ],
      "stateMutability": "view",
      "type": "function"
    },
    {
      "inputs": [],
      "name": "name",
      "outputs": [
        {
          "internalType": "string",
          "name": "",
          "type": "string"
        }
      ],
      "stateMutability": "view",
      "type": "function"
    },
    {
      "inputs": [],
      "name": "symbol",
      "outputs": [
        {
          "internalType": "string",
          "name": "",
          "type": "string"
        }
      ],
      "stateMutability": "view",
      "type": "function"
    },
    {
      "inputs": [
        {
          "internalType": "uint256",
          "name": "_tokenId",
          "type": "uint256"
        }
      ],
      "name": "tokenURI",
      "outputs": [
        {
          "internalType": "string",
          "name": "",
          "type": "string"
        }
      ],
      "stateMutability": "view",
      "type": "function"
    }
  ],
  "bytecode": "0x60806040523480156200001157600080fd5b5060405162000d5838038062000d5883398181016040528101906200003791906200037d565b620000687f01ffc9a7a5cef8baa21ed3c5c0d7e23accb804b619e9333b597f47a0d84076e26200010960201b60201c565b81600190816200007991906200064d565b5080600290816200008b91906200064d565b50620001017ffe1fe95acebadd5c664ee41aecf527d79ff82e329abb64857d6e0d40371737b17f13b182f4c0e5b2efbac0efe6cf6d756c8b89f4b79c5707a043ed9ea740574ee97f7feaf19471f34a12a7eaf32d5f3090aa2260ea8624dc8a138e74e0bf0f62307618186200010960201b60201c565b5050620007b7565b63ffffffff60e01b817bffffffffffffffffffffffffffffffffffffffffffffffffffffffff19160362000174576040517f08c379a00000000000000000000000000000000000000000000000000000000081526004016200016b9062000795565b60405180910390fd5b6001600080837bffffffffffffffffffffffffffffffffffffffffffffffffffffffff19167bffffffffffffffffffffffffffffffffffffffffffffffffffffffff1916815260200190815260200160002060006101000a81548160ff02191690831515021790555050565b6000604051905090565b600080fd5b600080fd5b600080fd5b600080fd5b6000601f19601f8301169050919050565b7f4e487b7100000000000000000000000000000000000000000000000000000000600052604160045260246000fd5b6200024982620001fe565b810181811067ffffffffffffffff821117156200026b576200026a6200020f565b5b80604052505050565b600062000280620001e0565b90506200028e82826200023e565b919050565b600067ffffffffffffffff821115620002b157620002b06200020f565b5b620002bc82620001fe565b9050602081019050919050565b60005b83811015620002e9578082015181840152602081019050620002cc565b83811115620002f9576000848401525b50505050565b600062000316620003108462000293565b62000274565b905082815260208101848484011115620003355762000334620001f9565b5b62000342848285620002c9565b509392505050565b600082601f830112620003625762000361620001f4565b5b815162000374848260208601620002ff565b91505092915050565b60008060408385031215620003975762000396620001ea565b5b600083015167ffffffffffffffff811115620003b857620003b7620001ef565b5b620003c6858286016200034a565b925050602083015167ffffffffffffffff811115620003ea57620003e9620001ef565b5b620003f8858286016200034a565b9150509250929050565b600081519050919050565b7f4e487b7100000000000000000000000000000000000000000000000000000000600052602260045260246000fd5b600060028204905060018216806200045557607f821691505b6020821081036200046b576200046a6200040d565b5b50919050565b60008190508160005260206000209050919050565b60006020601f8301049050919050565b600082821b905092915050565b600060088302620004d57fffffffffffffffffffffffffffffffffffffffffffffffffffffffffffffffff8262000496565b620004e1868362000496565b95508019841693508086168417925050509392505050565b6000819050919050565b6000819050919050565b60006200052e620005286200052284620004f9565b62000503565b620004f9565b9050919050565b6000819050919050565b6200054a836200050d565b62000562620005598262000535565b848454620004a3565b825550505050565b600090565b620005796200056a565b620005868184846200053f565b505050565b5b81811015620005ae57620005a26000826200056f565b6001810190506200058c565b5050565b601f821115620005fd57620005c78162000471565b620005d28462000486565b81016020851015620005e2578190505b620005fa620005f18562000486565b8301826200058b565b50505b505050565b600082821c905092915050565b6000620006226000198460080262000602565b1980831691505092915050565b60006200063d83836200060f565b9150826002028217905092915050565b620006588262000402565b67ffffffffffffffff8111156200067457620006736200020f565b5b6200068082546200043c565b6200068d828285620005b2565b600060209050601f831160018114620006c55760008415620006b0578287015190505b620006bc85826200062f565b8655506200072c565b601f198416620006d58662000471565b60005b82811015620006ff57848901518255600182019150602085019450602081019050620006d8565b868310156200071f57848901516200071b601f8916826200060f565b8355505b6001600288020188555050505b505050505050565b600082825260208201905092915050565b7f4552433136353a20696e76616c696420696e7465726661636549440000000000600082015250565b60006200077d601b8362000734565b91506200078a8262000745565b602082019050919050565b60006020820190508181036000830152620007b0816200076e565b9050919050565b61059180620007c76000396000f3fe608060405234801561001057600080fd5b506004361061004c5760003560e01c806301ffc9a71461005157806306fdde031461008157806395d89b411461009f578063c87b56dd146100bd575b600080fd5b61006b6004803603810190610066919061037a565b6100ed565b60405161007891906103c2565b60405180910390f35b610089610154565b6040516100969190610476565b60405180910390f35b6100a76101e6565b6040516100b49190610476565b60405180910390f35b6100d760048036038101906100d291906104ce565b610278565b6040516100e49190610476565b60405180910390f35b6000806000837bffffffffffffffffffffffffffffffffffffffffffffffffffffffff19167bffffffffffffffffffffffffffffffffffffffffffffffffffffffff1916815260200190815260200160002060009054906101000a900460ff169050919050565b6060600180546101639061052a565b80601f016020809104026020016040519081016040528092919081815260200182805461018f9061052a565b80156101dc5780601f106101b1576101008083540402835291602001916101dc565b820191906000526020600020905b8154815290600101906020018083116101bf57829003601f168201915b5050505050905090565b6060600280546101f59061052a565b80601f01602080910402602001604051908101604052809291908181526020018280546102219061052a565b801561026e5780601f106102435761010080835404028352916020019161026e565b820191906000526020600020905b81548152906001019060200180831161025157829003601f168201915b5050505050905090565b60606003600083815260200190815260200160002080546102989061052a565b80601f01602080910402602001604051908101604052809291908181526020018280546102c49061052a565b80156103115780601f106102e657610100808354040283529160200191610311565b820191906000526020600020905b8154815290600101906020018083116102f457829003601f168201915b50505050509050919050565b600080fd5b60007fffffffff0000000000000000000000000000000000000000000000000000000082169050919050565b61035781610322565b811461036257600080fd5b50565b6000813590506103748161034e565b92915050565b6000602082840312156103905761038f61031d565b5b600061039e84828501610365565b91505092915050565b60008115159050919050565b6103bc816103a7565b82525050565b60006020820190506103d760008301846103b3565b92915050565b600081519050919050565b600082825260208201905092915050565b60005b838110156104175780820151818401526020810190506103fc565b83811115610426576000848401525b50505050565b6000601f19601f8301169050919050565b6000610448826103dd565b61045281856103e8565b93506104628185602086016103f9565b61046b8161042c565b840191505092915050565b60006020820190508181036000830152610490818461043d565b905092915050565b6000819050919050565b6104ab81610498565b81146104b657600080fd5b50565b6000813590506104c8816104a2565b92915050565b6000602082840312156104e4576104e361031d565b5b60006104f2848285016104b9565b91505092915050565b7f4e487b7100000000000000000000000000000000000000000000000000000000600052602260045260246000fd5b6000600282049050600182168061054257607f821691505b602082108103610555576105546104fb565b5b5091905056fea26469706673582212202912c4c92cbfe3c6d93070e00a9aa9b334a95fe2613e0fb8ab9e65116444c90564736f6c634300080f0033",
  "immutableReferences": {},
  "source": "// SPDX-License-Identifier: MIT\npragma solidity 0.8.15;\n\nimport './interfaces/IERC721Metadata.sol';\nimport './ERC165.sol';\n\n// ERC721 optional metadata extension\ncontract ERC721Metadata is IERC721Metadata, ERC165 {\n  string private _name;\n  string private _symbol;\n  mapping (uint => string) private _tokenURI;\n\n  constructor(string memory __name, string memory __symbol) {\n    _name = __name;\n    _symbol = __symbol;\n\n    // TODO: adds supported interface id. \n    // This way of doing it is deprected. Learning exercise only\n    registerInterface(bytes4(\n            keccak256('name(bytes4)') \n            ^ keccak256('symbol(bytes4)')\n            ^ keccak256('tokenURI(bytes4)')\n            ));\n  }\n\n  function name() external view returns (string memory) {\n    return _name;\n  }\n\n  function symbol() external view returns (string memory) {\n    return _symbol;\n  }\n\n  // TODO: redo proper implementaion \n  function tokenURI(uint _tokenId) external view returns (string memory) {\n    return _tokenURI[_tokenId];\n  }\n}\n",
  "sourcePath": "/Users/saadshafiq/ethereum/solidity-learnings/nft-tradables/src/nft-contracts/contracts/ERC721Metadata.sol",
  "compiler": {
    "name": "solc",
    "version": "0.8.15+commit.e14f2714.Emscripten.clang"
  },
  "schemaVersion": "3.4.8",
  "updatedAt": "2022-07-13T17:02:28.331Z",
  "devdoc": {
    "kind": "dev",
    "methods": {
      "supportsInterface(bytes4)": {
        "details": "Interface identification is specified in ERC-165. This function  uses less than 30,000 gas.",
        "params": {
          "interfaceID": "The interface identifier, as specified in ERC-165"
        },
        "returns": {
          "_0": "`true` if the contract implements `interfaceID` and  `interfaceID` is not 0xffffffff, `false` otherwise"
        }
      },
      "tokenURI(uint256)": {
        "details": "Throws if `_tokenId` is not a valid NFT. URIs are defined in RFC  3986. The URI may point to a JSON file that conforms to the \"ERC721  Metadata JSON Schema\"."
      }
    },
    "version": 1
  },
  "userdoc": {
    "kind": "user",
    "methods": {
      "name()": {
        "notice": "A descriptive name for a collection of NFTs in this contract"
      },
      "supportsInterface(bytes4)": {
        "notice": "Query if a contract implements an interface"
      },
      "symbol()": {
        "notice": "An abbreviated name for NFTs in this contract"
      },
      "tokenURI(uint256)": {
        "notice": "A distinct Uniform Resource Identifier (URI) for a given asset."
      }
    },
    "version": 1
  }
}