{
  "contractName": "ERC721",
  "abi": [
    {
      "inputs": [],
      "stateMutability": "nonpayable",
      "type": "constructor"
    },
    {
      "anonymous": false,
      "inputs": [
        {
          "indexed": true,
          "internalType": "address",
          "name": "_owner",
          "type": "address"
        },
        {
          "indexed": true,
          "internalType": "address",
          "name": "_approved",
          "type": "address"
        },
        {
          "indexed": true,
          "internalType": "uint256",
          "name": "_tokenId",
          "type": "uint256"
        }
      ],
      "name": "Approval",
      "type": "event"
    },
    {
      "anonymous": false,
      "inputs": [
        {
          "indexed": true,
          "internalType": "address",
          "name": "_owner",
          "type": "address"
        },
        {
          "indexed": true,
          "internalType": "address",
          "name": "_operator",
          "type": "address"
        },
        {
          "indexed": false,
          "internalType": "bool",
          "name": "_approved",
          "type": "bool"
        }
      ],
      "name": "ApprovalForAll",
      "type": "event"
    },
    {
      "anonymous": false,
      "inputs": [
        {
          "indexed": true,
          "internalType": "address",
          "name": "_from",
          "type": "address"
        },
        {
          "indexed": true,
          "internalType": "address",
          "name": "_to",
          "type": "address"
        },
        {
          "indexed": true,
          "internalType": "uint256",
          "name": "_tokenId",
          "type": "uint256"
        }
      ],
      "name": "Transfer",
      "type": "event"
    },
    {
      "inputs": [
        {
          "internalType": "bytes4",
          "name": "interfaceID",
          "type": "bytes4"
        }
      ],
      "name": "supportsInterface",
      "outputs": [
        {
          "internalType": "bool",
          "name": "",
          "type": "bool"
        }
      ],
      "stateMutability": "view",
      "type": "function"
    },
    {
      "inputs": [
        {
          "internalType": "address",
          "name": "_owner",
          "type": "address"
        }
      ],
      "name": "balanceOf",
      "outputs": [
        {
          "internalType": "uint256",
          "name": "",
          "type": "uint256"
        }
      ],
      "stateMutability": "view",
      "type": "function"
    },
    {
      "inputs": [
        {
          "internalType": "uint256",
          "name": "_tokenId",
          "type": "uint256"
        }
      ],
      "name": "ownerOf",
      "outputs": [
        {
          "internalType": "address",
          "name": "",
          "type": "address"
        }
      ],
      "stateMutability": "view",
      "type": "function"
    },
    {
      "inputs": [
        {
          "internalType": "address",
          "name": "_from",
          "type": "address"
        },
        {
          "internalType": "address",
          "name": "_to",
          "type": "address"
        },
        {
          "internalType": "uint256",
          "name": "_tokenId",
          "type": "uint256"
        }
      ],
      "name": "transferFrom",
      "outputs": [],
      "stateMutability": "payable",
      "type": "function"
    },
    {
      "inputs": [
        {
          "internalType": "address",
          "name": "_approved",
          "type": "address"
        },
        {
          "internalType": "uint256",
          "name": "_tokenId",
          "type": "uint256"
        }
      ],
      "name": "approve",
      "outputs": [],
      "stateMutability": "payable",
      "type": "function"
    },
    {
      "inputs": [
        {
          "internalType": "address",
          "name": "_operator",
          "type": "address"
        },
        {
          "internalType": "bool",
          "name": "_approved",
          "type": "bool"
        }
      ],
      "name": "setApprovalForAll",
      "outputs": [],
      "stateMutability": "nonpayable",
      "type": "function"
    },
    {
      "inputs": [
        {
          "internalType": "uint256",
          "name": "_tokenId",
          "type": "uint256"
        }
      ],
      "name": "getApproved",
      "outputs": [
        {
          "internalType": "address",
          "name": "",
          "type": "address"
        }
      ],
      "stateMutability": "view",
      "type": "function"
    },
    {
      "inputs": [
        {
          "internalType": "address",
          "name": "_owner",
          "type": "address"
        },
        {
          "internalType": "address",
          "name": "_operator",
          "type": "address"
        }
      ],
      "name": "isApprovedForAll",
      "outputs": [
        {
          "internalType": "bool",
          "name": "",
          "type": "bool"
        }
      ],
      "stateMutability": "view",
      "type": "function"
    }
  ],
  "bytecode": "0x60806040523480156200001157600080fd5b50620000437f01ffc9a7a5cef8baa21ed3c5c0d7e23accb804b619e9333b597f47a0d84076e26200014660201b60201c565b620001407fe0c9b09697cad3aa3f2bcb7fdd781becaefa478990b24e83d3bfdb65623d77537f5af227006b8981efabb10af200ab71f08976cbce54b4c59ae5c97811d19a398c7f90dba0bef8387ab29f95a1abead857c8ccc338f1038f6fa159fa78fd18aff9f77f8c51fd5fcf1f456ec4eb0f32f68d83471264fe082fac12bcbfd2fa4be9eed6c77f22c82707ba960a14c7592ffb6b8cfaa073fed0048a84cc7fa41f6b5bd8e7f2e47f3a6eb71757dfc6e784c1459d26270140c2c147d95ca985c80026fc5301c3eca17f8a7e378434598edc36d108689a030cbc9d7d465de4f74c71bae1028eed6a881b1818181818186200014660201b60201c565b620002a0565b63ffffffff60e01b817bffffffffffffffffffffffffffffffffffffffffffffffffffffffff191603620001b1576040517f08c379a0000000000000000000000000000000000000000000000000000000008152600401620001a8906200027e565b60405180910390fd5b6001600080837bffffffffffffffffffffffffffffffffffffffffffffffffffffffff19167bffffffffffffffffffffffffffffffffffffffffffffffffffffffff1916815260200190815260200160002060006101000a81548160ff02191690831515021790555050565b600082825260208201905092915050565b7f4552433136353a20696e76616c696420696e7465726661636549440000000000600082015250565b600062000266601b836200021d565b915062000273826200022e565b602082019050919050565b60006020820190508181036000830152620002998162000257565b9050919050565b61138480620002b06000396000f3fe60806040526004361061007b5760003560e01c80636352211e1161004e5780636352211e1461013257806370a082311461016f578063a22cb465146101ac578063e985e9c5146101d55761007b565b806301ffc9a714610080578063081812fc146100bd578063095ea7b3146100fa57806323b872dd14610116575b600080fd5b34801561008c57600080fd5b506100a760048036038101906100a29190610d12565b610212565b6040516100b49190610d5a565b60405180910390f35b3480156100c957600080fd5b506100e460048036038101906100df9190610dab565b610279565b6040516100f19190610e19565b60405180910390f35b610114600480360381019061010f9190610e60565b61035a565b005b610130600480360381019061012b9190610ea0565b6104f4565b005b34801561013e57600080fd5b5061015960048036038101906101549190610dab565b610850565b6040516101669190610e19565b60405180910390f35b34801561017b57600080fd5b5061019660048036038101906101919190610ef3565b610931565b6040516101a39190610f2f565b60405180910390f35b3480156101b857600080fd5b506101d360048036038101906101ce9190610f76565b6109eb565b005b3480156101e157600080fd5b506101fc60048036038101906101f79190610fb6565b610b5c565b6040516102099190610d5a565b60405180910390f35b6000806000837bffffffffffffffffffffffffffffffffffffffffffffffffffffffff19167bffffffffffffffffffffffffffffffffffffffffffffffffffffffff1916815260200190815260200160002060009054906101000a900460ff169050919050565b6000816002600082815260200190815260200160002060009054906101000a900473ffffffffffffffffffffffffffffffffffffffff1673ffffffffffffffffffffffffffffffffffffffff16600073ffffffffffffffffffffffffffffffffffffffff160361031e576040517f08c379a000000000000000000000000000000000000000000000000000000000815260040161031590611053565b60405180910390fd5b6003600084815260200190815260200160002060009054906101000a900473ffffffffffffffffffffffffffffffffffffffff16915050919050565b61036381610bf0565b6103a2576040517f08c379a0000000000000000000000000000000000000000000000000000000008152600401610399906110e5565b60405180910390fd5b6002600082815260200190815260200160002060009054906101000a900473ffffffffffffffffffffffffffffffffffffffff1673ffffffffffffffffffffffffffffffffffffffff168273ffffffffffffffffffffffffffffffffffffffff1603610443576040517f08c379a000000000000000000000000000000000000000000000000000000000815260040161043a90611177565b60405180910390fd5b816003600083815260200190815260200160002060006101000a81548173ffffffffffffffffffffffffffffffffffffffff021916908373ffffffffffffffffffffffffffffffffffffffff160217905550808273ffffffffffffffffffffffffffffffffffffffff163373ffffffffffffffffffffffffffffffffffffffff167f8c5be1e5ebec7d5bd14f71427d1e84f3dd0314c0f7b2291e5b200ac8c7c3b92560405160405180910390a45050565b806002600082815260200190815260200160002060009054906101000a900473ffffffffffffffffffffffffffffffffffffffff1673ffffffffffffffffffffffffffffffffffffffff16600073ffffffffffffffffffffffffffffffffffffffff1603610597576040517f08c379a000000000000000000000000000000000000000000000000000000000815260040161058e90611053565b60405180910390fd5b828073ffffffffffffffffffffffffffffffffffffffff16600073ffffffffffffffffffffffffffffffffffffffff1603610607576040517f08c379a00000000000000000000000000000000000000000000000000000000081526004016105fe90611209565b60405180910390fd5b61061083610bf0565b61064f576040517f08c379a0000000000000000000000000000000000000000000000000000000008152600401610646906110e5565b60405180910390fd5b6002600084815260200190815260200160002060009054906101000a900473ffffffffffffffffffffffffffffffffffffffff1673ffffffffffffffffffffffffffffffffffffffff168573ffffffffffffffffffffffffffffffffffffffff16146106f0576040517f08c379a00000000000000000000000000000000000000000000000000000000081526004016106e790611275565b60405180910390fd5b836002600085815260200190815260200160002060006101000a81548173ffffffffffffffffffffffffffffffffffffffff021916908373ffffffffffffffffffffffffffffffffffffffff16021790555060018060008773ffffffffffffffffffffffffffffffffffffffff1673ffffffffffffffffffffffffffffffffffffffff168152602001908152602001600020600082825461079191906112c4565b9250508190555060018060008673ffffffffffffffffffffffffffffffffffffffff1673ffffffffffffffffffffffffffffffffffffffff16815260200190815260200160002060008282546107e791906112f8565b92505081905550828473ffffffffffffffffffffffffffffffffffffffff168673ffffffffffffffffffffffffffffffffffffffff167fddf252ad1be2c89b69c2b068fc378daa952ba7f163c4a11628f55a4df523b3ef60405160405180910390a45050505050565b6000816002600082815260200190815260200160002060009054906101000a900473ffffffffffffffffffffffffffffffffffffffff1673ffffffffffffffffffffffffffffffffffffffff16600073ffffffffffffffffffffffffffffffffffffffff16036108f5576040517f08c379a00000000000000000000000000000000000000000000000000000000081526004016108ec90611053565b60405180910390fd5b6002600084815260200190815260200160002060009054906101000a900473ffffffffffffffffffffffffffffffffffffffff16915050919050565b6000818073ffffffffffffffffffffffffffffffffffffffff16600073ffffffffffffffffffffffffffffffffffffffff16036109a3576040517f08c379a000000000000000000000000000000000000000000000000000000000815260040161099a90611209565b60405180910390fd5b600160008473ffffffffffffffffffffffffffffffffffffffff1673ffffffffffffffffffffffffffffffffffffffff16815260200190815260200160002054915050919050565b60003390508273ffffffffffffffffffffffffffffffffffffffff168173ffffffffffffffffffffffffffffffffffffffff1603610a5e576040517f08c379a0000000000000000000000000000000000000000000000000000000008152600401610a5590611177565b60405180910390fd5b81600460008373ffffffffffffffffffffffffffffffffffffffff1673ffffffffffffffffffffffffffffffffffffffff16815260200190815260200160002060008573ffffffffffffffffffffffffffffffffffffffff1673ffffffffffffffffffffffffffffffffffffffff16815260200190815260200160002060006101000a81548160ff0219169083151502179055508273ffffffffffffffffffffffffffffffffffffffff168173ffffffffffffffffffffffffffffffffffffffff167f17307eab39ab6107e8899845ad3d59bd9653f200f220920489ca2b5937696c3184604051610b4f9190610d5a565b60405180910390a3505050565b6000600460008473ffffffffffffffffffffffffffffffffffffffff1673ffffffffffffffffffffffffffffffffffffffff16815260200190815260200160002060008373ffffffffffffffffffffffffffffffffffffffff1673ffffffffffffffffffffffffffffffffffffffff16815260200190815260200160002060009054906101000a900460ff16905092915050565b6000806002600084815260200190815260200160002060009054906101000a900473ffffffffffffffffffffffffffffffffffffffff16905060003390508073ffffffffffffffffffffffffffffffffffffffff168273ffffffffffffffffffffffffffffffffffffffff161480610c6e5750610c6d8282610b5c565b5b80610cac5750610c7d84610279565b73ffffffffffffffffffffffffffffffffffffffff168173ffffffffffffffffffffffffffffffffffffffff16145b92505050919050565b600080fd5b60007fffffffff0000000000000000000000000000000000000000000000000000000082169050919050565b610cef81610cba565b8114610cfa57600080fd5b50565b600081359050610d0c81610ce6565b92915050565b600060208284031215610d2857610d27610cb5565b5b6000610d3684828501610cfd565b91505092915050565b60008115159050919050565b610d5481610d3f565b82525050565b6000602082019050610d6f6000830184610d4b565b92915050565b6000819050919050565b610d8881610d75565b8114610d9357600080fd5b50565b600081359050610da581610d7f565b92915050565b600060208284031215610dc157610dc0610cb5565b5b6000610dcf84828501610d96565b91505092915050565b600073ffffffffffffffffffffffffffffffffffffffff82169050919050565b6000610e0382610dd8565b9050919050565b610e1381610df8565b82525050565b6000602082019050610e2e6000830184610e0a565b92915050565b610e3d81610df8565b8114610e4857600080fd5b50565b600081359050610e5a81610e34565b92915050565b60008060408385031215610e7757610e76610cb5565b5b6000610e8585828601610e4b565b9250506020610e9685828601610d96565b9150509250929050565b600080600060608486031215610eb957610eb8610cb5565b5b6000610ec786828701610e4b565b9350506020610ed886828701610e4b565b9250506040610ee986828701610d96565b9150509250925092565b600060208284031215610f0957610f08610cb5565b5b6000610f1784828501610e4b565b91505092915050565b610f2981610d75565b82525050565b6000602082019050610f446000830184610f20565b92915050565b610f5381610d3f565b8114610f5e57600080fd5b50565b600081359050610f7081610f4a565b92915050565b60008060408385031215610f8d57610f8c610cb5565b5b6000610f9b85828601610e4b565b9250506020610fac85828601610f61565b9150509250929050565b60008060408385031215610fcd57610fcc610cb5565b5b6000610fdb85828601610e4b565b9250506020610fec85828601610e4b565b9150509250929050565b600082825260208201905092915050565b7f4552433732313a20746f6b656e20696420646f6573206e6f7420657869737473600082015250565b600061103d602083610ff6565b915061104882611007565b602082019050919050565b6000602082019050818103600083015261106c81611030565b9050919050565b7f4552433732313a206f6e6c79206f776e6572206f7220617070726f766564206160008201527f646472657373202f206f70657261746f722063616e2063616c6c000000000000602082015250565b60006110cf603a83610ff6565b91506110da82611073565b604082019050919050565b600060208201905081810360008301526110fe816110c2565b9050919050565b7f4552433732313a206e6f206e65656420746f20617070726f766520666f72206f60008201527f776e657200000000000000000000000000000000000000000000000000000000602082015250565b6000611161602483610ff6565b915061116c82611105565b604082019050919050565b6000602082019050818103600083015261119081611154565b9050919050565b7f4552433732313a205a45524f2041444452455353206973206e6f7420616c6c6f60008201527f7765640000000000000000000000000000000000000000000000000000000000602082015250565b60006111f3602383610ff6565b91506111fe82611197565b604082019050919050565b60006020820190508181036000830152611222816111e6565b9050919050565b7f4552433732313a20696e76616c6964206f776e65722061646472657373000000600082015250565b600061125f601d83610ff6565b915061126a82611229565b602082019050919050565b6000602082019050818103600083015261128e81611252565b9050919050565b7f4e487b7100000000000000000000000000000000000000000000000000000000600052601160045260246000fd5b60006112cf82610d75565b91506112da83610d75565b9250828210156112ed576112ec611295565b5b828203905092915050565b600061130382610d75565b915061130e83610d75565b9250827fffffffffffffffffffffffffffffffffffffffffffffffffffffffffffffffff0382111561134357611342611295565b5b82820190509291505056fea2646970667358221220a48371bebfe5cf1e05db1206150a1d3094309f5019e372e35834018eba02b46a64736f6c634300080f0033",
  "immutableReferences": {},
  "source": "// SPDX-License-Identifier: MIT\npragma solidity 0.8.15;\n\nimport './ERC165.sol';\nimport './interfaces/IERC721.sol';\n\n// TODO: safeTransferFrom functions \n\ncontract ERC721 is ERC165, IERC721 {\n\t// number of nfts per address\n\tmapping (address => uint) private _balanceOf;\n\t// owner address of nft\n\tmapping (uint => address) private _ownerOf;\n\t// token ids to approved addresses \n\tmapping (uint => address) private _approvedFor;\n\t// owner to approved operators mapping \n\tmapping (address => mapping (address => bool)) private _approvedForAll;\n\n\tconstructor() {\n\t\t// TODO: adds supported interface id. \n\t\t// This way of doing it is deprected. Learning exercise only\n\t\tregisterInterface(bytes4\n\t\t\t\t\t(keccak256('balanceOf(bytes4)') \n\t\t\t\t\t^ keccak256('ownerOf(bytes4)')\n\t\t\t\t\t// ^ keccak256('safeTransferFrom(bytes4)')\n\t\t\t\t\t// ^ keccak256('safeTransferFrom(bytes4)')\n\t\t\t\t\t^ keccak256('transferFrom(bytes4)')\n\t\t\t\t\t^ keccak256('approve(bytes4)')\n\t\t\t\t\t^ keccak256('setApprovalForAll(bytes4)')\n\t\t\t\t\t^ keccak256('getApproved(bytes4)')\n\t\t\t\t\t^ keccak256('isApprovedForAll(bytes4)')\n\t\t\t\t\t));\n\t}\n\n\tmodifier _exists(uint _tokenId) {\n\t\trequire(address(0) != _ownerOf[_tokenId], 'ERC721: token id does not exists');\n\t\t_;\n\t}\n\n\tmodifier _zeroAddress (address addr) {\n\t\trequire(address(0) != addr, 'ERC721: ZERO ADDRESS is not allowed');\n\t\t_;\n\t}\n\n\tfunction balanceOf(address _owner) public view _zeroAddress(_owner) returns (uint) {\n\t\treturn _balanceOf[_owner];\n\t}\n\n\tfunction ownerOf(uint _tokenId) external view _exists(_tokenId) returns (address) {\n\t\treturn _ownerOf[_tokenId];\n\t}\n\n\tfunction transferFrom(address _from, address _to, uint256 _tokenId) external _exists(_tokenId) _zeroAddress(_to) payable {\n\t\t// throws unless `msg.sender` is the current owner, an authorized\n\t\t// operator, or the approved address for this NFT.\n\t\trequire(_isOwnerOrApproved(_tokenId), 'ERC721: only owner or approved address / operator can call');\n\t\t// throws if '_from' is not the current owner\n\t\trequire(_from == _ownerOf[_tokenId], 'ERC721: invalid owner address');\n\t\t// transfer ownership\n\t\t_ownerOf[_tokenId] = _to;\n\t\t// update balances \n\t\t_balanceOf[_from] -= 1;\n\t\t_balanceOf[_to] += 1;\n\t\t// emit transfer event \n\t\temit Transfer(_from, _to, _tokenId);\n\t}\n\n\t// TODO: can approved address transfer approval to another address?\n\tfunction approve(address _approved, uint256 _tokenId) external payable {\n\t\t// only owner or operator can approve \n\t\trequire(_isOwnerOrApproved(_tokenId), 'ERC721: only owner or approved address / operator can call');\n\t\t// approve for owner address \n\t\trequire(_approved != _ownerOf[_tokenId], 'ERC721: no need to approve for owner');\n\t\t// add approval and emit Approval event\n\t\t_approvedFor[_tokenId] = _approved;\n\t\temit Approval(msg.sender, _approved, _tokenId);\n\t}\n\n\tfunction setApprovalForAll(address _operator, bool _approved) external {\n\t\taddress owner = msg.sender;\n\t\t// approve for owner address \n\t\trequire(owner != _operator, 'ERC721: no need to approve for owner');\n\t\t_approvedForAll[owner][_operator] = _approved;\n\t\temit ApprovalForAll(owner, _operator, _approved);\n\t}\n\n\tfunction getApproved(uint256 _tokenId) public view _exists(_tokenId) returns (address) {\n\t\treturn _approvedFor[_tokenId];\n\t}\n\n\tfunction isApprovedForAll(address _owner, address _operator) public view returns (bool) {\n\t\treturn _approvedForAll[_owner][_operator];\n\t}\n\n\t// msg.sender is owner, or approved for this token id or an approved operator\n\tfunction _isOwnerOrApproved(uint _tokenId) internal view returns (bool) {\n\t\taddress owner = _ownerOf[_tokenId];\n\t\taddress sender = msg.sender;\n\t\treturn (owner == sender || isApprovedForAll(owner, sender) || sender == getApproved(_tokenId));\n\t}\n\n\tfunction _mint(address _to, uint _tokenId) internal _zeroAddress(_to) virtual {\n\t\t// token id does not exist \n\t\trequire(address(0) == _ownerOf[_tokenId], 'ERC721: token id already minted');\n\t\t// set owner address\n\t\t_ownerOf[_tokenId] = _to;\n\t\t// update owner balance\n\t\t_balanceOf[_to] += 1;\n\t\t// emit transfer event\n\t\temit Transfer(address(0), _to, _tokenId);\n\t}\n\n\tfunction _burn(uint _tokenId) internal _exists(_tokenId) virtual {\n\t\taddress owner = _ownerOf[_tokenId];\n\t\t// sender is owner \n\t\trequire(msg.sender == owner, 'ERC721: only owner can call');\n\t\t// set to address zero\n\t\t_ownerOf[_tokenId] = address(0);\n\t\t// udpate owner balance\n\t\t_balanceOf[owner] -= 1;\n\t\t// emit transfer event \n\t\temit Transfer(owner, address(0), _tokenId);\n\t}\n}\n",
  "sourcePath": "/Users/saadshafiq/ethereum/solidity-learnings/nft-tradables/src/nft-contracts/contracts/ERC721.sol",
  "compiler": {
    "name": "solc",
    "version": "0.8.15+commit.e14f2714.Emscripten.clang"
  },
  "schemaVersion": "3.4.8",
  "updatedAt": "2022-07-13T17:02:28.319Z",
  "devdoc": {
    "kind": "dev",
    "methods": {
      "approve(address,uint256)": {
        "details": "The zero address indicates there is no approved address.  Throws unless `msg.sender` is the current NFT owner, or an authorized  operator of the current owner.",
        "params": {
          "_approved": "The new approved NFT controller",
          "_tokenId": "The NFT to approve"
        }
      },
      "balanceOf(address)": {
        "details": "NFTs assigned to the zero address are considered invalid, and this  function throws for queries about the zero address.",
        "params": {
          "_owner": "An address for whom to query the balance"
        },
        "returns": {
          "_0": "The number of NFTs owned by `_owner`, possibly zero"
        }
      },
      "getApproved(uint256)": {
        "details": "Throws if `_tokenId` is not a valid NFT.",
        "params": {
          "_tokenId": "The NFT to find the approved address for"
        },
        "returns": {
          "_0": "The approved address for this NFT, or the zero address if there is none"
        }
      },
      "isApprovedForAll(address,address)": {
        "params": {
          "_operator": "The address that acts on behalf of the owner",
          "_owner": "The address that owns the NFTs"
        },
        "returns": {
          "_0": "True if `_operator` is an approved operator for `_owner`, false otherwise"
        }
      },
      "ownerOf(uint256)": {
        "details": "NFTs assigned to zero address are considered invalid, and queries  about them do throw.",
        "params": {
          "_tokenId": "The identifier for an NFT"
        },
        "returns": {
          "_0": "The address of the owner of the NFT"
        }
      },
      "setApprovalForAll(address,bool)": {
        "details": "Emits the ApprovalForAll event. The contract MUST allow  multiple operators per owner.",
        "params": {
          "_approved": "True if the operator is approved, false to revoke approval",
          "_operator": "Address to add to the set of authorized operators"
        }
      },
      "supportsInterface(bytes4)": {
        "details": "Interface identification is specified in ERC-165. This function  uses less than 30,000 gas.",
        "params": {
          "interfaceID": "The interface identifier, as specified in ERC-165"
        },
        "returns": {
          "_0": "`true` if the contract implements `interfaceID` and  `interfaceID` is not 0xffffffff, `false` otherwise"
        }
      },
      "transferFrom(address,address,uint256)": {
        "details": "Throws unless `msg.sender` is the current owner, an authorized  operator, or the approved address for this NFT. Throws if `_from` is  not the current owner. Throws if `_to` is the zero address. Throws if  `_tokenId` is not a valid NFT.",
        "params": {
          "_from": "The current owner of the NFT",
          "_to": "The new owner",
          "_tokenId": "The NFT to transfer"
        }
      }
    },
    "version": 1
  },
  "userdoc": {
    "kind": "user",
    "methods": {
      "approve(address,uint256)": {
        "notice": "Change or reaffirm the approved address for an NFT"
      },
      "balanceOf(address)": {
        "notice": "Count all NFTs assigned to an owner"
      },
      "getApproved(uint256)": {
        "notice": "Get the approved address for a single NFT"
      },
      "isApprovedForAll(address,address)": {
        "notice": "Query if an address is an authorized operator for another address"
      },
      "ownerOf(uint256)": {
        "notice": "Find the owner of an NFT"
      },
      "setApprovalForAll(address,bool)": {
        "notice": "Enable or disable approval for a third party (\"operator\") to manage  all of `msg.sender`'s assets"
      },
      "supportsInterface(bytes4)": {
        "notice": "Query if a contract implements an interface"
      },
      "transferFrom(address,address,uint256)": {
        "notice": "Transfer ownership of an NFT -- THE CALLER IS RESPONSIBLE  TO CONFIRM THAT `_to` IS CAPABLE OF RECEIVING NFTS OR ELSE  THEY MAY BE PERMANENTLY LOST"
      }
    },
    "version": 1
  }
}